:1009AB000C0D000000000000010000000000020818
:0609BB000003020A000522
:1009C2007459250CF8A681E50C045401F50C245940
:0509D200F8E6F58122AA
:10096700EF75F006A4240EF87601EF75F006A424BF
:100977000FF8E4F608F6EF75F006A42411F8A604BC
:0409870008A6052297
:1009EA00438E805389F0758A40758CA2C28DD28C51
:0109FA0022DA
:1009FB00438E4053890F758BA0758DF6C28FD28EA7
:010A0B0022C8
:03001B000209D700
:1009D700C0E0C0D075D000C0001209C2D000D0D08E
:0309E700D0E0322B
:03000B0002088C5C
:10088C00C0E0C0F0C0D075D000C000C001C004C032
:01089C000754
:10089D00E4FFEF75F006A4240EF8E6B4010FEF7532
:1008AD00F006A4240FF80806E618700106EF75F09F
:1008BD0006A42412F9EF75F006A4240FF8E6FC083F
:1008CD00E6C397EC1997400DEF75F006A4240FF8C9
:0908DD0076000876000FBF02B995
:0F08E600D007D004D001D000D0D0D0F0D0E03275
:0C0A0C007F5C7E327DEEDDFEDEFCDFFA5A
:010A180022BB
:10094200780EE6B401051209C280F574032509F593
:1009520009E43508F5087DE87C03E4FFFE12096727
:050962001209C280DB58
:10091C007814E6B401051209C280F57405250BF5AF
:10092C000BE4350AF50A7DE87C037F017E00120991
:06093C00671209C280DA17
:1008F500EDC43354E0241AFC74592DF8A604AC0752
:10090500EDC43354E02419F8A604AF06EDC43354FE
:07091500E0241AF8A60722F6
:10098B001200001209FB7E097F42E4FD1208F57E7E
:10099B00097F1C0D1208F5E4F50C7859E6F5812258
:03000000020800F3
:0C080000787FE4F6D8FD75815A020847A5
:10080C0002098BE493A3F8E493A34003F68001F26E
:10081C0008DFF48029E493A3F85407240CC8C333ED
:10082C00C4540F4420C8834004F456800146F6DFBC
:10083C00E4800B01020408102040809009ABE47E98
:10084C00019360BCA3FF543F30E509541FFEE493B1
:10085C00A360010ECF54C025E060A840B8E493A378
:10086C00FAE493A3F8E493A3C8C582C8CAC583CAA3
:10087C00F0A3C8C582C8CAC583CADFE9DEE780BE5B
:0109C1000035
:00000001FF
